{
  "_format": "hh-sol-artifact-1",
  "contractName": "CosmeticsAuth",
  "sourceName": "contracts/CosmeticsAuth.sol",
  "abi": [
    {
      "anonymous": false,
      "inputs": [
        {
          "indexed": false,
          "internalType": "string",
          "name": "productId",
          "type": "string"
        },
        {
          "indexed": false,
          "internalType": "string",
          "name": "fraudReason",
          "type": "string"
        },
        {
          "indexed": false,
          "internalType": "uint256",
          "name": "scanCount",
          "type": "uint256"
        },
        {
          "indexed": false,
          "internalType": "string",
          "name": "locationDetails",
          "type": "string"
        }
      ],
      "name": "FraudReported",
      "type": "event"
    },
    {
      "anonymous": false,
      "inputs": [
        {
          "indexed": false,
          "internalType": "string",
          "name": "qrCode",
          "type": "string"
        },
        {
          "indexed": false,
          "internalType": "string",
          "name": "productName",
          "type": "string"
        },
        {
          "indexed": false,
          "internalType": "string",
          "name": "batchNumber",
          "type": "string"
        }
      ],
      "name": "ProductRegistered",
      "type": "event"
    },
    {
      "inputs": [
        {
          "internalType": "string",
          "name": "",
          "type": "string"
        },
        {
          "internalType": "uint256",
          "name": "",
          "type": "uint256"
        }
      ],
      "name": "fraudReports",
      "outputs": [
        {
          "internalType": "string",
          "name": "fraudReason",
          "type": "string"
        },
        {
          "internalType": "uint256",
          "name": "scanCount",
          "type": "uint256"
        },
        {
          "internalType": "string",
          "name": "locationDetails",
          "type": "string"
        },
        {
          "internalType": "uint256",
          "name": "timestamp",
          "type": "uint256"
        }
      ],
      "stateMutability": "view",
      "type": "function"
    },
    {
      "inputs": [
        {
          "internalType": "string",
          "name": "productId",
          "type": "string"
        }
      ],
      "name": "getFraudReports",
      "outputs": [
        {
          "components": [
            {
              "internalType": "string",
              "name": "fraudReason",
              "type": "string"
            },
            {
              "internalType": "uint256",
              "name": "scanCount",
              "type": "uint256"
            },
            {
              "internalType": "string",
              "name": "locationDetails",
              "type": "string"
            },
            {
              "internalType": "uint256",
              "name": "timestamp",
              "type": "uint256"
            }
          ],
          "internalType": "struct CosmeticsAuth.FraudReport[]",
          "name": "",
          "type": "tuple[]"
        }
      ],
      "stateMutability": "view",
      "type": "function"
    },
    {
      "inputs": [
        {
          "internalType": "string",
          "name": "",
          "type": "string"
        }
      ],
      "name": "productRegistry",
      "outputs": [
        {
          "internalType": "string",
          "name": "productName",
          "type": "string"
        },
        {
          "internalType": "string",
          "name": "batchNumber",
          "type": "string"
        },
        {
          "internalType": "uint256",
          "name": "manufacturingDate",
          "type": "uint256"
        },
        {
          "internalType": "uint256",
          "name": "expiryDate",
          "type": "uint256"
        },
        {
          "internalType": "string",
          "name": "ingredients",
          "type": "string"
        },
        {
          "internalType": "string",
          "name": "qrCode",
          "type": "string"
        }
      ],
      "stateMutability": "view",
      "type": "function"
    },
    {
      "inputs": [
        {
          "internalType": "string",
          "name": "qrCode",
          "type": "string"
        },
        {
          "internalType": "string",
          "name": "productName",
          "type": "string"
        },
        {
          "internalType": "string",
          "name": "batchNumber",
          "type": "string"
        },
        {
          "internalType": "uint256",
          "name": "manufacturingDate",
          "type": "uint256"
        },
        {
          "internalType": "uint256",
          "name": "expiryDate",
          "type": "uint256"
        },
        {
          "internalType": "string",
          "name": "ingredients",
          "type": "string"
        }
      ],
      "name": "registerProduct",
      "outputs": [],
      "stateMutability": "nonpayable",
      "type": "function"
    },
    {
      "inputs": [
        {
          "internalType": "string",
          "name": "productId",
          "type": "string"
        },
        {
          "internalType": "string",
          "name": "fraudReason",
          "type": "string"
        },
        {
          "internalType": "uint256",
          "name": "scanCount",
          "type": "uint256"
        },
        {
          "internalType": "string",
          "name": "locationDetails",
          "type": "string"
        }
      ],
      "name": "reportFraud",
      "outputs": [],
      "stateMutability": "nonpayable",
      "type": "function"
    },
    {
      "inputs": [
        {
          "internalType": "string",
          "name": "qrCode",
          "type": "string"
        }
      ],
      "name": "verifyProduct",
      "outputs": [
        {
          "internalType": "bool",
          "name": "",
          "type": "bool"
        }
      ],
      "stateMutability": "view",
      "type": "function"
    }
  ],
  "bytecode": "0x608060405234801561001057600080fd5b5061123c806100206000396000f3fe608060405234801561001057600080fd5b50600436106100625760003560e01c806317a310f1146100675780636f32b6bc1461008357806387f5e2dd146100b357806392efc453146100e857806397affe5914610118578063b33908f414610134575b600080fd5b610081600480360381019061007c9190610b98565b610167565b005b61009d60048036038101906100989190610a6e565b610262565b6040516100aa9190610e71565b60405180910390f35b6100cd60048036038101906100c89190610a6e565b610417565b6040516100df96959493929190610f54565b60405180910390f35b61010260048036038101906100fd9190610a6e565b610689565b60405161010f9190610e93565b60405180910390f35b610132600480360381019061012d9190610aaf565b6106c2565b005b61014e60048036038101906101499190610c43565b6107db565b60405161015e9493929190610fd1565b60405180910390f35b6001846040516101779190610e5a565b9081526020016040518091039020604051806080016040528085815260200184815260200183815260200142815250908060018154018082558091505060019003906000526020600020906004020160009091909190915060008201518160000190805190602001906101eb92919061094e565b5060208201518160010155604082015181600201908051906020019061021292919061094e565b506060820151816003015550507fedc68f7a40426e5fe173bb49e24c59ac2ece60941bdfadd20c4e7e2c23f900d0848484846040516102549493929190610efa565b60405180910390a150505050565b60606001826040516102749190610e5a565b9081526020016040518091039020805480602002602001604051908101604052809291908181526020016000905b8282101561040c57838290600052602060002090600402016040518060800160405290816000820180546102d59061114e565b80601f01602080910402602001604051908101604052809291908181526020018280546103019061114e565b801561034e5780601f106103235761010080835404028352916020019161034e565b820191906000526020600020905b81548152906001019060200180831161033157829003601f168201915b50505050508152602001600182015481526020016002820180546103719061114e565b80601f016020809104026020016040519081016040528092919081815260200182805461039d9061114e565b80156103ea5780601f106103bf576101008083540402835291602001916103ea565b820191906000526020600020905b8154815290600101906020018083116103cd57829003601f168201915b50505050508152602001600382015481525050815260200190600101906102a2565b505050509050919050565b6000818051602081018201805184825260208301602085012081835280955050505050506000915090508060000180546104509061114e565b80601f016020809104026020016040519081016040528092919081815260200182805461047c9061114e565b80156104c95780601f1061049e576101008083540402835291602001916104c9565b820191906000526020600020905b8154815290600101906020018083116104ac57829003601f168201915b5050505050908060010180546104de9061114e565b80601f016020809104026020016040519081016040528092919081815260200182805461050a9061114e565b80156105575780601f1061052c57610100808354040283529160200191610557565b820191906000526020600020905b81548152906001019060200180831161053a57829003601f168201915b5050505050908060020154908060030154908060040180546105789061114e565b80601f01602080910402602001604051908101604052809291908181526020018280546105a49061114e565b80156105f15780601f106105c6576101008083540402835291602001916105f1565b820191906000526020600020905b8154815290600101906020018083116105d457829003601f168201915b5050505050908060050180546106069061114e565b80601f01602080910402602001604051908101604052809291908181526020018280546106329061114e565b801561067f5780601f106106545761010080835404028352916020019161067f565b820191906000526020600020905b81548152906001019060200180831161066257829003601f168201915b5050505050905086565b60008060008360405161069c9190610e5a565b908152602001604051809103902060050180546106b89061114e565b9050119050919050565b6040518060c00160405280868152602001858152602001848152602001838152602001828152602001878152506000876040516106ff9190610e5a565b9081526020016040518091039020600082015181600001908051906020019061072992919061094e565b50602082015181600101908051906020019061074692919061094e565b506040820151816002015560608201518160030155608082015181600401908051906020019061077792919061094e565b5060a082015181600501908051906020019061079492919061094e565b509050507f5a304478b5ad812924e60fb3ee7fadbb2269effa0df0ede39b00fc1c606ee0c08686866040516107cb93929190610eae565b60405180910390a1505050505050565b600182805160208101820180518482526020830160208501208183528095505050505050818154811061080d57600080fd5b9060005260206000209060040201600091509150508060000180546108319061114e565b80601f016020809104026020016040519081016040528092919081815260200182805461085d9061114e565b80156108aa5780601f1061087f576101008083540402835291602001916108aa565b820191906000526020600020905b81548152906001019060200180831161088d57829003601f168201915b5050505050908060010154908060020180546108c59061114e565b80601f01602080910402602001604051908101604052809291908181526020018280546108f19061114e565b801561093e5780601f106109135761010080835404028352916020019161093e565b820191906000526020600020905b81548152906001019060200180831161092157829003601f168201915b5050505050908060030154905084565b82805461095a9061114e565b90600052602060002090601f01602090048101928261097c57600085556109c3565b82601f1061099557805160ff19168380011785556109c3565b828001600101855582156109c3579182015b828111156109c25782518255916020019190600101906109a7565b5b5090506109d091906109d4565b5090565b5b808211156109ed5760008160009055506001016109d5565b5090565b6000610a046109ff84611055565b611024565b905082815260208101848484011115610a1c57600080fd5b610a2784828561110c565b509392505050565b600082601f830112610a4057600080fd5b8135610a508482602086016109f1565b91505092915050565b600081359050610a68816111ef565b92915050565b600060208284031215610a8057600080fd5b600082013567ffffffffffffffff811115610a9a57600080fd5b610aa684828501610a2f565b91505092915050565b60008060008060008060c08789031215610ac857600080fd5b600087013567ffffffffffffffff811115610ae257600080fd5b610aee89828a01610a2f565b965050602087013567ffffffffffffffff811115610b0b57600080fd5b610b1789828a01610a2f565b955050604087013567ffffffffffffffff811115610b3457600080fd5b610b4089828a01610a2f565b9450506060610b5189828a01610a59565b9350506080610b6289828a01610a59565b92505060a087013567ffffffffffffffff811115610b7f57600080fd5b610b8b89828a01610a2f565b9150509295509295509295565b60008060008060808587031215610bae57600080fd5b600085013567ffffffffffffffff811115610bc857600080fd5b610bd487828801610a2f565b945050602085013567ffffffffffffffff811115610bf157600080fd5b610bfd87828801610a2f565b9350506040610c0e87828801610a59565b925050606085013567ffffffffffffffff811115610c2b57600080fd5b610c3787828801610a2f565b91505092959194509250565b60008060408385031215610c5657600080fd5b600083013567ffffffffffffffff811115610c7057600080fd5b610c7c85828601610a2f565b9250506020610c8d85828601610a59565b9150509250929050565b6000610ca38383610dd2565b905092915050565b6000610cb682611095565b610cc081856110b8565b935083602082028501610cd285611085565b8060005b85811015610d0e5784840389528151610cef8582610c97565b9450610cfa836110ab565b925060208a01995050600181019050610cd6565b50829750879550505050505092915050565b610d29816110f6565b82525050565b6000610d3a826110a0565b610d4481856110c9565b9350610d5481856020860161111b565b610d5d816111de565b840191505092915050565b6000610d73826110a0565b610d7d81856110da565b9350610d8d81856020860161111b565b610d96816111de565b840191505092915050565b6000610dac826110a0565b610db681856110eb565b9350610dc681856020860161111b565b80840191505092915050565b60006080830160008301518482036000860152610def8282610d2f565b9150506020830151610e046020860182610e3c565b5060408301518482036040860152610e1c8282610d2f565b9150506060830151610e316060860182610e3c565b508091505092915050565b610e4581611102565b82525050565b610e5481611102565b82525050565b6000610e668284610da1565b915081905092915050565b60006020820190508181036000830152610e8b8184610cab565b905092915050565b6000602082019050610ea86000830184610d20565b92915050565b60006060820190508181036000830152610ec88186610d68565b90508181036020830152610edc8185610d68565b90508181036040830152610ef08184610d68565b9050949350505050565b60006080820190508181036000830152610f148187610d68565b90508181036020830152610f288186610d68565b9050610f376040830185610e4b565b8181036060830152610f498184610d68565b905095945050505050565b600060c0820190508181036000830152610f6e8189610d68565b90508181036020830152610f828188610d68565b9050610f916040830187610e4b565b610f9e6060830186610e4b565b8181036080830152610fb08185610d68565b905081810360a0830152610fc48184610d68565b9050979650505050505050565b60006080820190508181036000830152610feb8187610d68565b9050610ffa6020830186610e4b565b818103604083015261100c8185610d68565b905061101b6060830184610e4b565b95945050505050565b6000604051905081810181811067ffffffffffffffff8211171561104b5761104a6111af565b5b8060405250919050565b600067ffffffffffffffff8211156110705761106f6111af565b5b601f19601f8301169050602081019050919050565b6000819050602082019050919050565b600081519050919050565b600081519050919050565b6000602082019050919050565b600082825260208201905092915050565b600082825260208201905092915050565b600082825260208201905092915050565b600081905092915050565b60008115159050919050565b6000819050919050565b82818337600083830152505050565b60005b8381101561113957808201518184015260208101905061111e565b83811115611148576000848401525b50505050565b6000600282049050600182168061116657607f821691505b6020821081141561117a57611179611180565b5b50919050565b7f4e487b7100000000000000000000000000000000000000000000000000000000600052602260045260246000fd5b7f4e487b7100000000000000000000000000000000000000000000000000000000600052604160045260246000fd5b6000601f19601f8301169050919050565b6111f881611102565b811461120357600080fd5b5056fea2646970667358221220d642758b8b1b9d5c0ede28319ff297d5cb1355e20c0718fcbfa89afe4e68424264736f6c63430008000033",
  "linkReferences": {},
  "deployedLinkReferences": {}
}